:1000000069C083C0F6C281C080C07FC07EC07DC091
:100010007CC07BC07AC079C078C077C076C02CC263
:100020002FC232C235C23DC23CC23BC23AC239C203
:1000300038C237C236C235C234C233C232C209C234
:100040000AC22FC20CC22DC215C22BC22AC229C29B
:1000500028C20CC202C225C221C223C222C221C2AE
:10006000F6C102C21EC21DC21CC21BC2FBC119C204
:10007000FFC1373300230056302E38370052003F7F
:100080002E2F212C3A3B7E245E28292D405F7C3D7B
:10009000232B2A25263C3EFC7C3C1C0C0484C4E417
:1000A000F46088A8904028D0082078B048E0A0F0FC
:1000B00068D85010C030187098B8C8325694E8CE3E
:1000C000E2AA4A137AB4B6866A36528C16548B4426
:1000D000AC14580011241FBECFE5D2E0DEBFCDBF67
:1000E00010E0A0E6B0E0E0E7FFE002C005900D926E
:1000F000A436B107D9F720E0A4E6B0E001C01D9214
:10010000AA37B207E1F7B1D631C77ACFCF93DF93E1
:10011000CAE0D0E085E46CD481E021D481110FC025
:10012000B39B02C0219704C082E054D3CAE0D0E060
:10013000B49903C081E04ED3EBCF209759F7DF91FC
:10014000CF910895CF93C0E081E009D4811118C008
:1001500081E0AAD381E089D382E0A6D383E085D36E
:1001600095D3B39903C061E082E008C0B49B04C09A
:10017000CF5FCA3049F704C061E081E0AAD3E3CF82
:10018000CF91089540916200509163009A012170CF
:1001900033273195219531092227347B5695479590
:1001A000242735273093630020936200932F9817FC
:1001B00010F0981BFCCF892F90E00895EF92FF92EA
:1001C0000F931F93CF937C018C01C0E0C23031F4B8
:1001D0008AE0D8DF805DF701828305C08AE1D2DF43
:1001E0008F5BF8018083CF5F0F5F1F4FC53071F7C2
:1001F000CF911F910F91FF90EF900895CF92DF92D2
:10020000EF92FF920F931F93CF93DF9300D000D014
:100210001F92CDB7DEB76E0186E0C80ED11CCE01AD
:100220000196CCDF10E0112309F180EDE82E87E084
:10023000F82E80E06ED4082FC6D2F1E0EF1AF10854
:10024000011126C071F180E08AD3882391F381E007
:1002500086D3811126C0E1E0F0E0EC0FFD1FE10F35
:10026000F11D80818017B9F06FD310E08EE0FDD2D0
:10027000FE0131967F01F70181917F01B9D306D349
:1002800081E06DD381110DC0EC14FD04A1F7CDCF39
:10029000EF28E9F606C01F5F153029F682E5A8D3DE
:1002A000BECF0F900F900F900F900F90DF91CF91D6
:1002B0001F910F91FF90EF90DF90CF9008950F93D3
:1002C0001F93CF93C82F8091600090916100883E6A
:1002D0009D4F49F440E050E061E081E053D29093BB
:1002E000610080936000C13009F04BC01092610042
:1002F0001092600088EE93E0909365008093640014
:100300008EE476D308EE13E080916400909165004E
:1003100001979093650080936400892BD9F080E069
:10032000F8D3C82F50D280ED8C0F8A3068F78091B7
:100330006000909161006AE070E0A9D5C0978C0FD1
:10034000911D90936100809360001093650000936D
:100350006400DACF4091600050916100403187E243
:10036000580758F461E082E00DD2809160009091CE
:100370006100CF911F910F9199C3CF911F910F9160
:10038000E3C2C230A1F58091600090916100892B99
:1003900071F180E038D18091640090916500009700
:1003A00031F00197909365008093640020C088EC41
:1003B00090E090936500809364008091600090913C
:1003C000610001979093610080936000892B79F41C
:1003D00040E050E061E081E0D5D1909361008093EE
:1003E000600064E082E0CF911F910F919BC4CF9198
:1003F0001F910F9108950F931F93CF9381E0B8D170
:100400008FE3F6D208EE13E081E0A9D281118EC00D
:100410000115110509F48AC080E07BD3C82F811132
:1004200003C00150110902C008EE13E0CCD18FEFD8
:10043000A9DE82E00BD2811134C08C2F90E0FC0148
:10044000F197EA32F10568F5E15FFF4F09943CD17D
:1004500075C080E005C084E003C088E001C08CE086
:10046000E9D16CC080E84FC080E14DC080E24BC054
:1004700069DE64C080E447C081E3BAD261E00BC0AA
:1004800082E3B6D262E007C083E3B2D263E003C086
:1004900084E3AED264E081E045D450C081E00FDF58
:1004A0004DC0CD34B1F178F4C33459F120F4C033E8
:1004B000B1F582E028C0C53441F1C93481F580E04E
:1004C00057D162E029C0C535B1F040F4C03589F09C
:1004D000C43529F580E04CD163E01EC0C63529F053
:1004E000C735E9F46CD1E2D229C087E790E0CAD2DF
:1004F00025C00CDE23C080E03BD166D281E038D13C
:100500001DC07CDE1BC0A6D119C080E031D161E0E6
:1005100003C080E02DD164E082E004D40AC0C13081
:1005200069F0CC2309F470CF0FD26ECF85E790E04D
:10053000A9D280E0CF911F910F911AC1A1D089E07B
:1005400094D18DE790E09ED25FCF80917900807842
:10055000B3990AC0811102C091E001C092E02091DC
:100560007800922B90937800B4990AC0811102C050
:1005700082E001C081E090917800892B809378001F
:1005800008958091780084FF02C01ABC13BE809148
:10059000780085FF07C08091790086FF02C0C09A6D
:1005A0000895C098089580917900982F9073809154
:1005B00078008F7C892B80937800E3CF809178003E
:1005C00084FF0BC08091760089BD8091760088BD44
:1005D0008AB582618ABD82E083BF8091780085FF01
:1005E00007C08091790086FF02C0C0980895C09A24
:1005F00008951F920F920FB60F9211240F900FBE05
:100600000F901F901895882391F180916E00909122
:100610006F00A0917000B0917100803727E19207C0
:10062000A105B10561F00196A11DB11D80936E0079
:1006300090936F00A0937000B09371000895109292
:100640006E0010926F00109270001092710085B7CA
:10065000877E806185BF85B7846885BF8B7F85BFB6
:1006600085B7806285BF78948895F8940895109234
:100670006E0010926F001092700010927100089539
:100680008091780082FF1FC065EA89E991E05DD41E
:10069000609176007091770086E991E064D4609172
:1006A000730085E991E051D46091790088E991E087
:1006B0004CD46091720084E991E047D48091780035
:1006C0008B7F8093780008958DE490E0909377007D
:1006D000809376008FE08093730080E190E09093A8
:1006E0007500809374001092720084E38093790007
:1006F00080917800846080937800C2CFB89AB99ACC
:10070000C39AC49AC29A89E991E009D4853A01F55D
:1007100086E991E00CD4909377008093760085E988
:1007200091E0FDD380937300682F70E080EF90E03C
:10073000D3D3709375006093740084E991E0EFD394
:100740008093720088E991E0EAD38093790001C038
:10075000BBDF29DF85B38C6185BB8BB780628BBF24
:100760008EE48DBD80B7876880BF81E08EBD08951F
:10077000882339F0809178008F7C806180937800A5
:10078000089511CF962F813051F4613019F482E928
:1007900091E004C0623081F480E991E0C8C3823006
:1007A00059F4BA01913019F482E991E004C0923011
:1007B00019F480E991E0D7D380E090E0089580912A
:1007C000730090E0089508B606FEFDCF88B78064F8
:1007D00088BF08952091760030917700813019F418
:1007E0002150310904C0823031F42F5F3F4F3093E4
:1007F000770020937600809176009091770088971B
:1008000030F488E290E090937700809376008091B6
:100810007600909177008C39910530F08BE990E06B
:100820009093770080937600809178008460809325
:100830007800089590917900937F892B80937900B7
:100840008091780084608093780008959091790079
:100850008923089590917900892780937900809168
:1008600078008460809378000895CF93DF93C82F39
:10087000CC2349F0D0917400DD2319F0A4DFD150CE
:10088000FBCFC150F5CFDF91CF910895CF93DF9388
:10089000C0917200D0E0209721F081E0E6DF21973F
:1008A000FACFDF91CF910895CF93C82F87DE1092B2
:1008B0006E0010926F001092700010927100C130A3
:1008C00021F0C23021F483E001C081E0CEDFCF917E
:1008D00058CE613091F4813031F4809172008823D8
:1008E00029F1815007C0823009F5809172008F3F55
:1008F000E9F08F5F8093720019C09091730081308E
:1009000021F4923348F49F5F05C0823029F4963079
:1009100018F09150909373006091730070E080EF35
:1009200090E0DAD270937500609374008091780043
:1009300084608093780081E0B7DF81E096DF82E019
:10094000B3DF83E092DFA2CFCF93C8E081E0ACDFDA
:1009500081E08BDFC150D1F783E0CF9186CFCF9379
:10096000DF93D82FC0917800B2991FC0C86081E092
:10097000FFDE83ED90E30197F1F700C00000B2992C
:100980000DC0B39904C060E082E0A3DFC77FB499D3
:10099000F6CF60E081E09DDFC77FF1CF83ED90E38C
:1009A0000197F1F700C000006BDED13019F0C09361
:1009B000780004C08C2F877F80937800C3FB882742
:1009C00080F9DF91CF910895CF93DF93F7DDC0EAEF
:1009D000DFE0B39903C0DF91CF91D3CDB49BFBCFC0
:1009E00081E0BDDF8111F7CFEEDE219791F7F3CFE4
:1009F000CF9390ED980F9A3030F4E82FF0E0E9595A
:100A0000FF4FC49101C0C0E89FE9980F9A3128F4C4
:100A1000E82FF0E0E05CFF4FC4919FEB980F9A3114
:100A200028F4E82FF0E0E05AFF4FC49120E030E0D6
:100A3000F901E158FF4FE4918E1304C0F901E55428
:100A4000FF4FC4912F5F3F4F2831310589F7803226
:100A500071F484E0CF9109CF80E081DF811110C073
:100A6000C7FF08C082E020DF81E0FFDECC0FC03886
:100A700099F702C081E0F7CF82E0F7DECF9106CF91
:100A8000CF9108951F93CF93DF93EC01FE01149152
:100A9000112341F081E063DF2196811103C0812F92
:100AA000A7DFF4CFDF91CF911F9108951F93CF93CC
:100AB000DF9300D000D01F92CDB7DEB710E02AE060
:100AC00030E00097D1F0E1E0F0E0EC0FFD1FE10F26
:100AD000F11DB901EDD1805D8083CB011F5FF1CFA6
:100AE00081E03DDF81110BC01150E1E0F0E0EC0F3F
:100AF000FD1FE10FF11D80817BDF1111F1CF80E23D
:100B00000F900F900F900F900F90DF91CF911F914A
:100B10006FCFCF9320916C0030916D00211531057E
:100B200031F02150310930936D0020936C00811118
:100B300002C010926B0080916A00813009F4BDC040
:100B400020F0823009F4DAC0EAC0FFDC81E05BDD2E
:100B5000809179008C70843049F018F4882331F04A
:100B600029C0883071F08C30E1F024C08091690098
:100B70008095909178008923809378001092690085
:100B800019C080917800982F9370933039F4909128
:100B90006800992361F0909589230AC090936800BA
:100BA00009C080917800982F9370933019F48E7F4C
:100BB0008093780080916C0090916D00892B09F0F2
:100BC00049C080916700882309F43CC09091660079
:100BD000990F916027E030E0281B310901C0990F7F
:100BE0002A95EAF720E030E0822FF901E956FF4F1D
:100BF000E4919E130DC02A3010F4805D0FC02432A2
:100C000010F4895C0BC0F901E55AFF4F849106C0CE
:100C10002F5F3F4F2C33310539F780E0109267008A
:100C2000109266002091740030917500220F331FDE
:100C3000220F331F30936D0020936C0091E090934E
:100C40006B006EC080916B00882321F010926B00C6
:100C500080E266C0C09178008C2F837009F45FC079
:100C600010926B00809167008F5F809367002091E6
:100C70006600220F209366008091740090917500A9
:100C8000C0FF08C090936D0080936C0081E080935A
:100C900069000DC063E070E0FAD090936D0080931E
:100CA0006C0082E08093690021602093660086DCFE
:100CB000CC7FC093780081E01EC010926E0010922D
:100CC0006F001092700010927100809179008C700A
:100CD000843009F43ADC80916C0090916D00892B8E
:100CE000F1F44FDC809174009091750090936D0049
:100CF00080936C0082E080936A0011C026DC8091B2
:100D00006C0090916D00892B51F410926A008091D3
:100D100074009091750090936D0080936C0080E05A
:100D2000CF910895EF92FF920F931F93CF93DF938C
:100D3000CDB7DEB7C456D1090FB6F894DEBF0FBEEB
:100D4000CDBF062F813009F050C010E098EEE92E9B
:100D500093E0F92E81E003DE811179C081E0D9DED4
:100D6000811104C081E0E81AF1080CC0E1E0F0E074
:100D7000EC0FFD1FE10FF11D80831F5F88EEE82E51
:100D800083E0F82E143610F0DFDD10E01CDDE114F6
:100D9000F10401F7112339F11150E1E0F0E0EC0F1B
:100DA000FD1FE10FF11D1082013029F444E650E0EF
:100DB0006CE271E006C0023041F444E650E068ECB9
:100DC00070E0CE010196B8D042C0033029F444E669
:100DD00050E064E670E0F5CF0430C9F544E650E039
:100DE00060E070E0EECFB0DD32C0823081F561307E
:100DF00029F444E650E06CE271E014C0623029F45A
:100E000044E650E068EC70E00DC0633029F444E63D
:100E100050E064E670E006C0643039F444E650E027
:100E200060E070E0CE0101966AD010E0E1E0F0E011
:100E3000EC0FFD1FE10FF11D0081002341F080E068
:100E40008EDD811104C0802FD3DD1F5FEFCFCC5921
:100E5000DF4F0FB6F894DEBF0FBECDBFDF91CF914D
:100E60001F910F91FF90EF90089548DC81E080DCA6
:100E700082E790E007DE80E07BDC81E070DD8111BD
:100E8000BADAA1DC82E01BDA80E043DEF6CF002490
:100E9000552704C0080E591F880F991F009729F085
:100EA00076956795B8F37105B9F7802D952F08955C
:100EB000AA1BBB1B51E107C0AA1FBB1FA617B70780
:100EC00010F0A61BB70B881F991F5A95A9F780959C
:100ED0009095BC01CD01089597FB072E16F4009460
:100EE00006D077FD08D0E4DF07FC05D03EF49095EE
:100EF00081959F4F0895709561957F4F0895DC010E
:100F0000CB01FC01E199FECF06C0FFBBEEBBE09A2E
:100F100031960DB20D9241505040B8F70895E199C5
:100F2000FECF9FBB8EBBE09A99278DB30895A8E1B1
:100F3000B0E042E050E0E5CFDC01CB0102C02D91F2
:100F400005D041505040D8F70895262FE199FECFA3
:100F50001CBA9FBB8EBB2DBB0FB6F894E29AE19AE8
:100F60000FBE01960895F1DF272FF0CFF894FFCF41
:040F7000E8FDE1AC0B
:00000001FF
