:1000000069C083C0F2C281C080C07FC07EC07DC095
:100010007CC07BC07AC079C078C077C076C02AC265
:100020002DC230C233C23BC23AC239C238C237C213
:1000300036C235C234C233C232C231C230C207C244
:1000400008C22DC20AC22BC213C229C228C227C2AB
:1000500026C20AC200C223C21FC221C220C21FC2BE
:10006000F4C100C21CC21BC21AC219C2F9C117C214
:10007000FDC1373300230056302E38370052003F81
:100080002E2F212C3A3B7E245E28292D405F7C3D7B
:10009000232B2A25263C3EFC7C3C1C0C0484C4E417
:1000A000F46088A8904028D0082078B048E0A0F0FC
:1000B00068D85010C030187098B8C8325694E8CE3E
:1000C000E2AA4A137AB4B6866A36528C16548B4426
:1000D000AC14580011241FBECFE5D2E0DEBFCDBF67
:1000E00010E0A0E6B0E0E0E7FFE002C005900D926E
:1000F000A436B107D9F720E0A4E6B0E001C01D9214
:10010000AA37B207E1F7B1D631C77ACFCF93DF93E1
:10011000CAE0D0E085E46CD481E01FD481110FC027
:10012000B39B02C0219704C082E052D3CAE0D0E062
:10013000B49903C081E04CD3EBCF209759F7DF91FE
:10014000CF910895CF93C0E081E007D4811118C00A
:1001500081E0A8D381E087D382E0A4D383E083D376
:1001600093D3B39903C061E082E008C0B49B04C09C
:10017000CF5FCA3049F704C061E081E0A8D3E3CF84
:10018000CF91089540916200509163009A012170CF
:1001900033273195219531092227347B5695479590
:1001A000242735273093630020936200932F9817FC
:1001B00010F0981BFCCF892F90E00895EF92FF92EA
:1001C0000F931F93CF937C018C01C0E0C23031F4B8
:1001D0008AE0D8DF805DF701828305C08AE1D2DF43
:1001E0008F5BF8018083CF5F0F5F1F4FC53071F7C2
:1001F000CF911F910F91FF90EF900895CF92DF92D2
:10020000EF92FF920F931F93CF93DF9300D000D014
:100210001F92CDB7DEB76E0186E0C80ED11CCE01AD
:100220000196CCDF10E0112309F180EDE82E87E084
:10023000F82E80E06ED4082FC4D2F1E0EF1AF10856
:10024000011126C071F180E088D3882391F381E009
:1002500084D3811126C0E1E0F0E0EC0FFD1FE10F37
:10026000F11D80818017B9F06DD310E08EE0FBD2D4
:10027000FE0131967F01F70181917F01B9D304D34B
:1002800081E06BD381110DC0EC14FD04A1F7CDCF3B
:10029000EF28E9F606C01F5F153029F682E5A8D3DE
:1002A000BECF0F900F900F900F900F90DF91CF91D6
:1002B0001F910F91FF90EF90DF90CF9008950F93D3
:1002C0001F93CF93C82F8091600090916100883E6A
:1002D0009D4F49F440E050E061E081E051D29093BD
:1002E000610080936000C13009F04BC01092610042
:1002F0001092600088EE93E0909365008093640014
:100300008EE476D308EE13E080916400909165004E
:1003100001979093650080936400892BD9F080E069
:10032000F8D3C82F4ED280ED8C0F8A3068F78091B9
:100330006000909161006AE070E0A9D5C0978C0FD1
:10034000911D90936100809360001093650000936D
:100350006400DACF4091600050916100403187E243
:10036000580758F461E082E00BD2809160009091D0
:100370006100CF911F910F9199C3CF911F910F9160
:10038000E1C2C230A1F58091600090916100892B9B
:1003900071F180E034D18091640090916500009704
:1003A00031F00197909365008093640020C088EC41
:1003B00090E090936500809364008091600090913C
:1003C000610001979093610080936000892B79F41C
:1003D00040E050E061E081E0D3D1909361008093F0
:1003E000600064E082E0CF911F910F919BC4CF9198
:1003F0001F910F9108950F931F93CF9381E0B5D173
:1004000008EE13E081E0A9D281118EC0011511051B
:1004100009F48AC080E07DD3C82F811103C0015048
:10042000110902C008EE13E0CCD18FEFABDE82E001
:100430000BD2811134C08C2F90E0FC01F197EA328D
:10044000F10568F5E15FFF4F09943AD172C080E091
:1004500005C084E003C088E001C08CE0E9D169C038
:1004600080E84FC080E14DC080E24BC06BDE61C0D0
:1004700080E447C081E3BCD261E00BC082E3B8D224
:1004800062E007C083E3B4D263E003C084E3B0D288
:1004900064E081E047D44DC081E011DF4AC0CD3433
:1004A000B1F178F4C33459F120F4C033B1F582E0EE
:1004B00028C0C53441F1C93481F580E056D162E0ED
:1004C00029C0C535B1F040F4C03589F0C43529F5EF
:1004D00080E04BD163E01EC0C63529F0C735E9F492
:1004E0006CD1E4D226C087E790E0CCD222C00EDEE9
:1004F00020C080E03AD168D281E037D11AC07EDED8
:1005000018C0A6D116C080E030D161E003C080E001
:100510002CD164E082E006D407C0C13051F0CC2376
:1005200009F470CF0FD26ECF80E0CF911F910F9161
:100530001CC1A2D089E097D18DE790E0A3D262CF11
:10054000809179008078B3990AC0811102C091E04E
:1005500001C092E020917800922B90937800B4999A
:100560000AC0811102C082E001C081E09091780050
:10057000892B8093780008958091780084FF02C0D1
:100580001ABC13BE8091780085FF07C08091790066
:1005900086FF02C0C59A0895C5980895C0988091B5
:1005A0007900982F9073809178008F7C892B8093AD
:1005B0007800E2CF8091780084FF0BC080917600B4
:1005C00089BD8091760088BD8AB582618ABD82E04E
:1005D00083BF8091780085FF07C08091790086FFF6
:1005E00002C0C5980895C59A08951F920F920FB63C
:1005F0000F9211240F900FBE0F901F901895882313
:1006000091F180916E0090916F00A0917000B09177
:100610007100803727E19207A105B10561F00196CD
:10062000A11DB11D80936E0090936F00A093700088
:10063000B0937100089510926E0010926F001092A6
:1006400070001092710085B7877E806185BF85B785
:10065000846885BF8B7F85BF85B7806285BF7894AE
:100660008895F894089510926E0010926F00109281
:1006700070001092710008958091780082FF1FC071
:1006800065EA89E991E061D4609176007091770024
:1006900086E991E068D46091730085E991E055D4D2
:1006A0006091790088E991E050D46091720084E90A
:1006B00091E04BD4809178008B7F809378000895EF
:1006C0008DE490E090937700809376008FE08093A4
:1006D000730080E190E09093750080937400109215
:1006E000720084E380937900809178008460809325
:1006F0007800C2CFBD9AB99AB89AC39AC49AC29ADE
:1007000089E991E00CD4853A01F586E991E00FD4AE
:10071000909377008093760085E991E000D48093F0
:100720007300682F70E080EF90E0D6D3709375006F
:100730006093740084E991E0F2D38093720088E9B9
:1007400091E0EDD38093790001C0BADF27DF85B354
:100750008C6185BB8BB780628BBF8EE48DBD80B70B
:10076000876880BF81E08EBD0895882341F0C09ADC
:10077000809178008F7C80618093780008950ECFFF
:10078000962F813051F4613019F482E991E004C070
:10079000623081F480E991E0CAC3823059F4BA0131
:1007A000913019F482E991E004C0923019F480E9A3
:1007B00091E0D9D380E090E008958091730090E0BB
:1007C000089508B606FEFDCF88B7806488BF0895F7
:1007D0002091760030917700813019F42150310951
:1007E00004C0823031F42F5F3F4F30937700209365
:1007F00076008091760090917700889730F488E2B7
:1008000090E09093770080937600809176009091AD
:1008100077008C39910530F08BE990E09093770068
:1008200080937600809178008460809378000895AA
:1008300090917900937F892B809379008091780043
:1008400084608093780008959091790089230895B9
:100850009091790089278093790080917800846055
:10086000809378000895CF93DF93C82FCC2349F06D
:10087000D0917400DD2319F0A4DFD150FBCFC1501B
:10088000F5CFDF91CF910895CF93DF93C0917200A0
:10089000D0E0209721F081E0E6DF2197FACFDF91C9
:1008A000CF910895CF93C82F85DE10926E001092DD
:1008B0006F001092700010927100C13021F0C230B0
:1008C00021F483E001C081E0CEDFCF9155CE6130CD
:1008D00091F4813031F480917200882329F18150A4
:1008E00007C0823009F5809172008F3FE9F08F5F79
:1008F0008093720019C090917300813021F492337B
:1009000048F49F5F05C0823029F4963018F091506A
:10091000909373006091730070E080EF90E0DCD200
:100920007093750060937400809178008460809368
:10093000780081E0B7DF81E096DF82E0B3DF83E01B
:1009400092DFA2CFCF93C8E081E0ACDF81E08BDF04
:10095000C150D1F783E0CF9186CFCF93DF93D82FCB
:10096000C0917800B29921C0C86081E0FEDE83EDBD
:1009700090E30197F1F700C00000B2990FC0B3995E
:1009800005C060E082E0A3DFC77FC098B499F5CFCF
:1009900060E081E09CDFC77FC098EFCF83ED90E3FC
:1009A0000197F1F700C0000067DED13019F0C09365
:1009B000780004C08C2F877F80937800C3FB882742
:1009C00080F9DF91CF910895CF93DF93F3DDC0EAF3
:1009D000DFE0B39903C0DF91CF91CECDB49BFBCFC5
:1009E00081E0BBDF8111F7CFECDE219791F7F3CFE8
:1009F000CF9390ED980F9A3030F4E82FF0E0E9595A
:100A0000FF4FC49101C0C0E89FE9980F9A3128F4C4
:100A1000E82FF0E0E05CFF4FC4919FEB980F9A3114
:100A200028F4E82FF0E0E05AFF4FC49120E030E0D6
:100A3000F901E158FF4FE4918E1304C0F901E55428
:100A4000FF4FC4912F5F3F4F2831310589F7803226
:100A500071F484E0CF9107CF80E07FDF811110C077
:100A6000C7FF08C082E01EDF81E0FDDECC0FC0388A
:100A700099F702C081E0F7CF82E0F5DECF9104CF95
:100A8000CF9108951F93CF93DF93EC01FE01149152
:100A9000112341F081E061DF2196811103C0812F94
:100AA000A7DFF4CFDF91CF911F9108951F93CF93CC
:100AB000DF9300D000D01F92CDB7DEB710E02AE060
:100AC00030E00097D1F0E1E0F0E0EC0FFD1FE10F26
:100AD000F11DB901EDD1805D8083CB011F5FF1CFA6
:100AE00081E03BDF81110BC01150E1E0F0E0EC0F41
:100AF000FD1FE10FF11D80817BDF1111F1CF80E23D
:100B00000F900F900F900F900F90DF91CF911F914A
:100B10006FCFCF9320916C0030916D00211531057E
:100B200031F02150310930936D0020936C00811118
:100B300002C010926B0080916A00813009F4BDC040
:100B400020F0823009F4DAC0EAC0FADC81E057DD37
:100B5000809179008C70843049F018F4882331F04A
:100B600029C0883071F08C30E1F024C08091690098
:100B70008095909178008923809378001092690085
:100B800019C080917800982F9370933039F4909128
:100B90006800992361F0909589230AC090936800BA
:100BA00009C080917800982F9370933019F48E7F4C
:100BB0008093780080916C0090916D00892B09F0F2
:100BC00049C080916700882309F43CC09091660079
:100BD000990F916027E030E0281B310901C0990F7F
:100BE0002A95EAF720E030E0822FF901E956FF4F1D
:100BF000E4919E130DC02A3010F4805D0FC02432A2
:100C000010F4895C0BC0F901E55AFF4F849106C0CE
:100C10002F5F3F4F2C33310539F780E0109267008A
:100C2000109266002091740030917500220F331FDE
:100C3000220F331F30936D0020936C0091E090934E
:100C40006B006EC080916B00882321F010926B00C6
:100C500080E266C0C09178008C2F837009F45FC079
:100C600010926B00809167008F5F809367002091E6
:100C70006600220F209366008091740090917500A9
:100C8000C0FF08C090936D0080936C0081E080935A
:100C900069000DC063E070E0FAD090936D0080931E
:100CA0006C0082E08093690021602093660082DC02
:100CB000CC7FC093780081E01EC010926E0010922D
:100CC0006F001092700010927100809179008C700A
:100CD000843009F435DC80916C0090916D00892B93
:100CE000F1F44ADC809174009091750090936D004E
:100CF00080936C0082E080936A0011C021DC8091B7
:100D00006C0090916D00892B51F410926A008091D3
:100D100074009091750090936D0080936C0080E05A
:100D2000CF910895EF92FF920F931F93CF93DF938C
:100D3000CDB7DEB7C456D1090FB6F894DEBF0FBEEB
:100D4000CDBF062F813009F050C010E098EEE92E9B
:100D500093E0F92E81E001DE811179C081E0D9DED6
:100D6000811104C081E0E81AF1080CC0E1E0F0E074
:100D7000EC0FFD1FE10FF11D80831F5F88EEE82E51
:100D800083E0F82E143610F0DDDD10E01ADDE114FA
:100D9000F10401F7112339F11150E1E0F0E0EC0F1B
:100DA000FD1FE10FF11D1082013029F444E650E0EF
:100DB0006CE271E006C0023041F444E650E068ECB9
:100DC00070E0CE010196B8D042C0033029F444E669
:100DD00050E064E670E0F5CF0430C9F544E650E039
:100DE00060E070E0EECFAEDD32C0823081F5613080
:100DF00029F444E650E06CE271E014C0623029F45A
:100E000044E650E068EC70E00DC0633029F444E63D
:100E100050E064E670E006C0643039F444E650E027
:100E200060E070E0CE0101966AD010E0E1E0F0E011
:100E3000EC0FFD1FE10FF11D0081002341F080E068
:100E40008CDD811104C0802FD3DD1F5FEFCFCC5923
:100E5000DF4F0FB6F894DEBF0FBECDBFDF91CF914D
:100E60001F910F91FF90EF90089544DC81E07DDCAD
:100E700082E790E007DE80E078DC81E06EDD8111C2
:100E8000BADA9FDC82E01BDA80E043DEF6CF002492
:100E9000552704C0080E591F880F991F009729F085
:100EA00076956795B8F37105B9F7802D952F08955C
:100EB000AA1BBB1B51E107C0AA1FBB1FA617B70780
:100EC00010F0A61BB70B881F991F5A95A9F780959C
:100ED0009095BC01CD01089597FB072E16F4009460
:100EE00006D077FD08D0E4DF07FC05D03EF49095EE
:100EF00081959F4F0895709561957F4F0895DC010E
:100F0000CB01FC01E199FECF06C0FFBBEEBBE09A2E
:100F100031960DB20D9241505040B8F70895E199C5
:100F2000FECF9FBB8EBBE09A99278DB30895A8E1B1
:100F3000B0E042E050E0E5CFDC01CB0102C02D91F2
:100F400005D041505040D8F70895262FE199FECFA3
:100F50001CBA9FBB8EBB2DBB0FB6F894E29AE19AE8
:100F60000FBE01960895F1DF272FF0CFF894FFCF41
:040F7000E8FDE1AC0B
:00000001FF
